:100000000C943E000C945D000C9470000C945B000A
:100010000C945B000C945B000C945B000C945B00F4
:100020000C945B000C945B000C945B000C945B00E4
:100030000C945B000C9483000C945B000C945B00AC
:100040000C945B000C945B000C945B000C945B00C4
:100050000C945B000C945B000C945B000C945B00B4
:100060000C945B000C945B000C945B000C945B00A4
:100070000C945B000C945B000C945B0011241FBE7D
:10008000CFEFD8E0DEBFCDBF13E0A0E0B1E0E0E805
:10009000F3E202C005900D92AC3FB107D9F724E01E
:1000A000ACEFB3E001C01D92A331B207E1F70E94AB
:1000B0002D0F0C94BE110C9400008F938FB78F936B
:1000C0009F9381E08093FF038FE19EE40197F1F716
:1000D00000C00000E09A9F918F918FBF8F9118957B
:1000E0008F938FB78F939F9381E08093FE038FE16F
:1000F0009EE40197F1F700C00000E19A9F918F9173
:100100008FBF8F9118958F938FB78F939F93809107
:1001100000049091010401969093010480930004DF
:100120009F918F918FBF8F911895F894E99AE9E686
:10013000F0E080818C60808378940895CF93DF9382
:1001400000D000D0CDB7DEB7F894109285001092A1
:100150008400B0E0A0E089839A83AB83BC83BC01B8
:10016000CD010E94E70F20E030E04AEF50E46983C0
:100170007A838B839C8369817A818B819C810E94A5
:100180004D1069837A838B839C8369817A818B810B
:100190009C810E94B80F462F572F5093890040939F
:1001A0008800E0E8F0E0808180648083E1E8F0E0AE
:1001B00080818D608083EFE6F0E0808182608083C3
:1001C0001092820078940F900F900F900F90DF9113
:1001D000CF91089525E044E06BE270E08AE290E080
:1001E0000E9480030E9412030E9439030E9495001E
:1001F0000E94C8090E9442030E94C3050E946B032B
:100200000C941204109285001092840010928000C9
:100210001092810010926F000895DC01FB011082A2
:100220001C928C91811103C080818823D1F30895A1
:100230000F931F93CF93DF93EC018B01FB0110828F
:1002400018828881811109C0F8018081811105C05F
:1002500082E090E00E949903F4CFDF91CF911F914B
:100260000F9108951F93CF93DF93EC01188288813B
:10027000882321F0DF91CF911F91089519E182E049
:1002800090E00E9499031150D1F783E090E00E9422
:1002900099032FE78AE196E0215080409040E1F7F2
:1002A00000C00000E4CFCF93C3E080E50E94C50505
:1002B0002FEF82E597E0215080409040E1F700C0A9
:1002C00000000E94CD052FEF82E597E0215080408D
:1002D0009040E1F700C00000C15039F7CF91089578
:1002E0008CE30E94C5052FEF83ED90E32150804001
:1002F0009040E1F700C000000C94CD0590E080E054
:100300000E9499032FE78AE196E0215080409040B7
:10031000E1F700C0000083E090E00E9499032FE71E
:100320008AE196E0215080409040E1F700C0000053
:10033000E5CF84E60E94EC090E940C0A2FEF83ECC3
:1003400099E0215080409040E1F700C0000082E336
:100350000E94D80982E30C94E20980E00C94EC0935
:100360001F93CF93DF931AE0D0E0C0E080E00E94BB
:1003700048039695879596958795C80FD91F115074
:10038000A9F7CE016AE070E00E94E910862FDF91A4
:10039000CF911F910895803550F48C3258F48E31EE
:1003A00060F4853168F083E090E00196089590E074
:1003B00080E0FBCF81E090E0F8CF82E090E0F5CFE5
:1003C00090E080E008950E94B00180910604909131
:1003D00007040497A0F08CE30E94D809109201044E
:1003E000109200048091080490910904885E934063
:1003F000209100043091010428173907C8F382E3E3
:100400000E94D80910920104109200040E94B001C9
:100410000E94CB019C0180910004909101048C36D4
:100420009B4618F0109200010895232B79F38CE37A
:100430000E94E2098FEF94E32CE08150904020402D
:10044000E1F700C000000E94B001803530F080E08C
:100450000E94E20980E00C94D80980E00E94D8094B
:100460004FEF84E39CE0415080409040E1F700C0B2
:10047000000080E00E94E209C2CF81E090E00E948B
:1004800099032FEF83ED90E3215080409040E1F7F6
:1004900000C0000082E390E00E949E000E9491064E
:1004A0000E94D7081092850010928400109280005C
:1004B0001092810010926F005D985C980895CF9320
:1004C000DF9300D0CDB7DEB79A83898389819A8183
:1004D00023E0880F991F2A95E1F76CE775E10E94E8
:1004E000E910862F87700F900F90DF91CF910895BC
:1004F000982F81E020910204309103049217130693
:1005000011F008F080E008950F931F93CF93DF93CD
:1005100010920104109200048CE30E94D8090CE7A9
:1005200015E180910004909101048C37954138F0D9
:1005300080E0DF91CF911F910F910C94D8090E9418
:10054000B001C0910004D0910104282F30E0409107
:100550000204509103044217530718F73093030421
:10056000209302040E94CB0190E0909305048093B5
:100570000404CE0123E0880F991F2A95E1F7B80102
:100580000E94E910677070E070930704609306049E
:1005900080910004909101049093090480930804D1
:1005A000C0CFCF93DF93CDB7DEB72A970FB6F894BD
:1005B000DEBF0FBECDBF8AE0E7E0F1E0DE011196BD
:1005C00001900D928A95E1F78091FD0390E0880FEC
:1005D000991FE1E0F0E0EC0FFD1FE80FF91F80919B
:1005E000060490910704E80FF91F2081022E000CE9
:1005F000330B8091040492E0833008F491E0809101
:10060000FC03299F800D11248093FC0361E090E09E
:100610002A960FB6F894DEBF0FBECDBFDF91CF9103
:100620000C94F80452980895E0910101F0910201B0
:10063000808182FB882780F9882371F08FE19EE416
:100640000197F1F700C00000E0910101F091020173
:10065000808182FB882780F980930A040895CF93D4
:10066000C0910A040E94140391E089278C23CF9142
:100670000895F894E89AE9E6F0E080818360808349
:100680007894089510927C0086E880937A0008950B
:1006900090917C00907E90937C0090917C0087707C
:1006A000892B80937C0080917A00806480937A000B
:1006B00080917A0084FFFCCF80917A0080618093E2
:1006C0007A00209178008091790090E0982F882717
:1006D000820F911D08958FEC8093C400E1ECF0E04F
:1006E000808188618083E2ECF0E080818660808395
:1006F00008958091C00087FFFCCF8091C6000895C7
:10070000FC0170930E0460930D0440930C0420933D
:100710000B04308161E070E0CB0101C0880F4A9585
:10072000EAF701C0660F2A95EAF7862B832B8083B0
:1007300008959C018230910509F45FC02CF4009764
:1007400019F1019721F008950397E9F10895E091D7
:100750000D04F0910E04808190910C04A90101C058
:10076000440F9A95EAF7842B8083E0910D04F09171
:100770000E04808190910B0401C0220F9A95EAF734
:100780002095282320830895E0910D04F0910E0414
:10079000208130910B0481E090E0AC0101C0440F56
:1007A0003A95EAF7242B2083E0910D04F0910E0492
:1007B000208130910C0401C0880F3A95EAF78095AA
:1007C000822380830895E0910D04F0910E0440810E
:1007D00080910C0421E030E0B90102C0660F771F60
:1007E0008A95E2F7CB0190910B0401C0220F9A95F4
:1007F000EAF7822B80958423E4CF81E090E00E9489
:1008000099038FE79EE30197F1F700C0000090E0A5
:1008100080E00E9499038FE99FE00197F1F700C003
:100820000000089580EA809303011092B90080E2ED
:100830008093B8000895982F9370891305C0880F8E
:10084000806A8093030108958FEF0895FB0134EAD5
:1008500044E83093BC002091BC0027FFFCCF2091DE
:1008600003012093BB004093BC002091BC0027FFF4
:10087000FCCF2091B900283161F724EA2093BC0015
:100880002091BC0027FFFCCF209103012093BB00E7
:1008900024E82093BC002091BC0027FFFCCF90935C
:1008A000BB0094E89093BC009091BC0097FFFCCFF4
:1008B0008093BB0084E88093BC008091BC0087FFDC
:1008C000FCCF8091BC0087FFFCCF84EA8093BC0002
:1008D0008091BC0087FFFCCF809103018F5F8093E4
:1008E000BB0084E88093BC008091BC0087FFFCCFF4
:1008F00084E88093BC008091BC0087FFFCCF80918E
:10090000BB00808384E98093BC008FE097E201976D
:10091000F1F700C0000080E0089534EA54E8309315
:10092000BC002091BC0027FFFCCF20910301209345
:10093000BB005093BC002091BC0027FFFCCF20914E
:10094000B900283161F724EA2093BC002091BC0053
:1009500027FFFCCF209103012093BB0024E82093C4
:10096000BC002091BC0027FFFCCF9093BB0094E813
:100970009093BC009091BC0097FFFCCF8093BB008C
:1009800084E88093BC008091BC0087FFFCCF84EAA0
:100990008093BC008091BC0087FFFCCF8091030155
:1009A0008F5F8093BB0084E88093BC008091BC0083
:1009B00087FFFCCF84EC41110BC084E98093BC001D
:1009C0008FE097E20197F1F700C0000080E0089502
:1009D000413009F484E88093BC009091BC0097FFFB
:1009E000FCCF9091BB00FB0191934150BF01E3CF3D
:1009F00034EA44E83093BC002091BC0027FFFCCFD0
:100A0000209103012093BB004093BC002091BC00C7
:100A100027FFFCCF2091B900283161F724EA209309
:100A2000BC002091BC0027FFFCCF20910301209344
:100A3000BB0024E82093BC002091BC0027FFFCCF22
:100A40009093BB0094E89093BC009091BC0097FFFA
:100A5000FCCF8093BB0084E88093BC008091BC00F5
:100A600087FFFCCF6093BB0084E88093BC0080913B
:100A7000BC0087FFFCCF84E98093BC008FE097E245
:100A80000197F1F700C0000080E008959C01840FF9
:100A9000911DA9014F678417950710F0CA010196AF
:100AA000821B44EA54E84093BC009091BC0097FF3D
:100AB000FCCF909103019093BB005093BC009091A8
:100AC000BC0097FFFCCF9091B900983161F794EA90
:100AD0009093BC009091BC0097FFFCCF90910301D4
:100AE0009093BB0094E89093BC009091BC0097FF5A
:100AF000FCCF3093BB0094E89093BC009091BC0075
:100B000097FFFCCF2093BB0094E89093BC0090919A
:100B1000BC0097FFFCCF982F24E8911104C094E902
:100B20009093BC000895FB0131913093BB0020935A
:100B3000BC003091BC0037FFFCCF9150BF01EDCF1E
:100B4000EF92FF920F931F93CF937C018B01C42FE1
:100B50004C2FB801C7010E944605282F30E0E20E55
:100B6000F31EC81B020F131FC111F2CF8FE097E2D3
:100B70000197F1F700C0000080E0CF911F910F9125
:100B8000FF90EF9008950C941C09E82FF0E0EB51D2
:100B9000FF4F60E080810C9420091092B200109207
:100BA000B0001092B1001092700008958F929F9241
:100BB000AF92BF92CF92DF92FF920F931F93CF938A
:100BC000DF938A019B0140910F04509110046091C2
:100BD00011047091120440955095609570956C01C8
:100BE00080E090E0DC0140930F0450931004609388
:100BF00011047093120480179107A207B307C1F480
:100C0000409550956095709540930F045093100453
:100C10006093110470931204DF91CF911F910F9193
:100C2000FF90DF90CF90BF90AF909F908F900895EE
:100C3000F601F1906F01D0E0C0E04A018F24769573
:100C400067955795479580FE08C0F0E24F27F3E877
:100C50005F27F8EB6F27FDEE7F27F6942196C830CB
:100C6000D10559F70196A11DB11DBDCFCF93FC0150
:100C7000DC0130E020E0CD91C11108C0280F391F00
:100C8000E217F30731F4CF910C94D6052F5F3F4F55
:100C9000F2CFA091C000A5FFFCCFA191A093C60008
:100CA000EFCFCF92DF92EF92FF920F931F93CF93EC
:100CB000DF938B019C01FA01EA01CA0108966A01DF
:100CC0007C01B901A8014F70552766277727495C39
:100CD0005E4FDA014C91D6014D936D0144E036959B
:100CE0002795179507954A95D1F7A817B90749F79A
:100CF0001086D701AF014C5F5F4F89919E919E0195
:100D000021503109F90190838C93C417D507A9F7B5
:100D1000DF91CF911F910F91FF90EF90DF90CF90D7
:100D200008952F923F924F925F926F927F928F928F
:100D30009F92AF92BF92CF92DF92EF92FF920F936A
:100D40001F93CF93DF93CDB7DEB764970FB6F894B8
:100D5000DEBF0FBECDBF4DB75EB7588B4F87CE01FC
:100D600001964C010E94300BC4010E944F0B5E01A2
:100D70009AE0A90EB11CB401C5010E948A0D6E0152
:100D800037E0C30ED11CB501C6010E947409C6012B
:100D90000E946E0A782EE92EC6010E94800982E028
:100DA00090E00E94E21041E751E060E070E08FE7E0
:100DB00091E00E943606072D1E2DF12C898A9A8A11
:100DC0009A2C8B2CCB8ADC8A2AE030E001151105A5
:100DD00009F009C14DB75EB74F1951090FB6F89424
:100DE0005EBF0FBE4DBF8DB79EB701966C014AE046
:100DF000BC01872D9E2D0E9489114F2D50E070E07F
:100E000060E0C6010E94360646E150E060E070E016
:100E100081EF92E00E94360642E150E060E070E02F
:100E200088E093E00E943606512C9EE6292E22E9A6
:100E3000322E3AE0A32EB12C892D982D0E949909CB
:100E4000581608F4D7C041E350E060E070E08DE14F
:100E500093E00E9436068AE0A82EB12C802F87707E
:100E60009EE6899F6001112431E9C30ED11C360131
:100E7000202F26952695269542E9420370011124DC
:100E800059E3E51A5EEFF50A27016B897C89C801F1
:100E90000E9426043F808DB79EB79E878D873320A2
:100EA00009F427C14DE050E060E070E08FE493E08A
:100EB0000E943606312C33949301C301B5010E9480
:100EC000E9103B012A303105B0F74DB75EB7431941
:100ED00051090FB6F8945EBF0FBE4DBF8DB79EB7D8
:100EE00001963C014AE0BC01C6010E948911432DD4
:100EF00050E070E060E0C3010E94360646E050E03A
:100F000060E070E08DE593E00E943606712C7394EA
:100F10009201C201B5010E94E9102B012A3031056E
:100F2000B0F74DB75EB7471951090FB6F8945EBFD9
:100F30000FBE4DBF8DB79EB701966C014AE0BC0154
:100F4000C7010E948911472D50E070E060E0C601A2
:100F50000E94360646E350E060E070E084E693E0ED
:100F60000E9436064D855E850FB6F8945EBF0FBEB3
:100F70004DBF0F5F1F4F0032110509F06FCF47E0E3
:100F800050E060E070E083EF93E00E94360683E07B
:100F900090E00E94E210892D982D0E948009898995
:100FA0009A890E943D0B8F8598890FB6F8949EBF51
:100FB0000FBE8DBF64960FB6F894DEBF0FBECDBFD7
:100FC000DF91CF911F910F91FF90EF90DF90CF9025
:100FD000BF90AF909F908F907F906F905F904F9059
:100FE0003F902F900895F394C801B9010E94E91031
:100FF0008B01ECCE4DB75EB75E874D87652D892D91
:10100000982D0E949F09482F282F2770229D90011C
:1010100011242F563F4FC901469546954695532DAD
:1010200054037001112449E3E41A4EEFF40A6701F6
:10103000412C4394FC01B5010E94E910CB013A9781
:10104000C0F78DB79EB7841991090FB6F8949EBF6B
:101050000FBE8DBF4DB75EB74F5F5F4F3A014AE09D
:10106000B301C9010E948911442D50E070E060E095
:10107000C3010E94360641E050E060E070E08BE181
:1010800093E00E943606712CC114D10459F58DB736
:101090009EB7871991090FB6F8949EBF0FBE8DBFFA
:1010A0004DB75EB74F5F5F4F6A014AE0B601C701B7
:1010B0000E948911472D50E070E060E0C6010E9457
:1010C000360641E050E060E070E08FEE92E00E9472
:1010D00036068D859E850FB6F8949EBF0FBE8DBFD8
:1010E0005394AACE7394C601B5010E94E9106B0116
:1010F000CBCF4AE050E060E070E08BE993E00E94E3
:101100003606212C23949301C301B5010E94E910F6
:101110003B012A303105B0F74DB75EB7421951098E
:101120000FB6F8945EBF0FBE4DBF8DB79EB7019648
:101130003C014AE0BC01C6010E948911422D50E0E9
:1011400070E060E0C3010E94360645E050E060E0D8
:1011500070E086EA93E00E94360633949201C20161
:10116000B5010E94E9102B012A303105B0F74DB7C7
:101170005EB7431951090FB6F8945EBF0FBE4DBF5D
:101180008DB79EB701966C014AE0BC01C7010E9471
:101190008911432D50E070E060E0C6010E943606E0
:1011A00046E450E060E070E08CEA93E0D9CECF9363
:1011B000DF93CDB7DEB72D970FB6F894DEBF0FBE25
:1011C000CDBF80910F0490911004A0911104B091B3
:1011D00012048A879B87AC87BD87AE014F5F5F4F44
:1011E000BC01CD010E945106FE013196DF0190E065
:1011F00080E02D91211116C0A1E0B0E0AC0FBD1F21
:101200008A0F9B1FE817F90779F484E090E00E94A9
:10121000E2102D960FB6F894DEBF0FBECDBFDF9162
:10122000CF9108950196E5CF2091C00025FFFCCF16
:1012300021912093C600E6CF8AB1806C8AB90895C7
:10124000F8941092B2001092B0001092B100109277
:1012500070008093B3008091B00082648093B000EE
:101260008091B10086608093B100662361F0609345
:10127000B4008091B00080618093B00080917000D4
:1012800084608093700078940895F8941092B2006E
:101290001092B0001092B100109270008093B300D1
:1012A0008091B00081688093B0008091B10084602B
:1012B0008093B100809170008260809370006623FB
:1012C00061F06093B4008091B00080628093B000C0
:1012D0008091700084608093700078940895FC0180
:1012E0006083618312820895FC01DB018C9180830D
:1012F00011968C911197818312968C918283089517
:101300000895CF93DF93EC01898190E00E94F80467
:1013100089818F5F89838A818F5F8A83DF91CF91F3
:101320000895FC0181818150818382818150828373
:101330000895FC0182810895FC0180810895CF9376
:10134000DF930F92CDB7DEB7FC01962F1982808113
:10135000BE016F5F7F4F890F9927991F0E94260456
:1013600089810F90DF91CF910895FC01962F642F12
:101370008081890F9927991F0C94F804FC016281E0
:101380000C949F09FC0181E09281911180E0089505
:1013900084B1886784B984B5816084BD84B5806870
:1013A00084BD84B5806284BD85B5826085BD0895A5
:1013B0002FEF829FC001112464E670E00E94FD10AF
:1013C00067BD08952FEF829FC001112464E670E08D
:1013D0000E94FD1068BD0895CF93C82FE0910401CD
:1013E000F09105018081806680838C2F0E94D8094E
:1013F0008C2FCF910C94E209CF93C82FE091040178
:10140000F091050180818F7980838C2F0E94D8090B
:101410008C2FCF910C94E209E0910401F091050129
:10142000808190E2892780830895E0910401F09102
:101430000501808190E489278083089580E00E94DF
:10144000EC092FEF84E39CE0215080409040E1F7CD
:1014500000C0000084E60E94EC090E94150A2FEFEC
:1014600086E191E1215080409040E1F700C000000A
:1014700080E00E94EC092FEF84E39CE02150804043
:101480009040E1F700C00000089580E00E94EC0960
:101490002FEF84E39CE0215080409040E1F700C0B2
:1014A000000084E60E94EC090E940C0A2FEF86E1FE
:1014B00091E1215080409040E1F700C0000080E0C1
:1014C0000E94EC092FEF84E39CE021508040904083
:1014D000E1F700C000000895089508957F928F926B
:1014E0009F92AF92BF92CF92DF92EF92FF920F93B3
:1014F0001F93CF93DF93CDB7DEB72A970FB6F8943B
:10150000DEBF0FBECDBFD82EC92E0E949909F12C87
:10151000E12C10E000E0A82EB12CEA14FB040CF43E
:1015200048C0C801110FAA0BBB0B8F839887A987EE
:10153000BA87BC01CD010E94E90FDC01CB01BF7766
:101540008F839887A987BA8720E030E040E05FE387
:10155000BC01CD010E944D1020E030E042EF52E48A
:101560006F83788789879A876F81788589859A853F
:101570000E944D106F83788789879A876F8178855D
:1015800089859A850E947E11CB012A960FB6F89420
:10159000DEBF0FBECDBFDF91CF911F910F91FF90A6
:1015A000EF90DF90CF90BF90AF909F908F907F9003
:1015B00008958FEFE81AF80A6FEF6E0D8D2D9C2DB0
:1015C0000E949F09682FCE0104960E94110BCE0144
:1015D00004960E942A0B782ECE0104960E942D0BB1
:1015E000882EC701B5010E94FD10682F8D2D9C2DFE
:1015F0000E949F09682FCE0101960E94110BCE0117
:1016000001960E942A0B982ECE0101960E942D0B66
:10161000789E000D111D1124899C001911091124B7
:101620007CCFFC016083862F8770818366956695E9
:10163000669562830895FC01DB018C91808311968D
:101640008C911197818312968C9182830895FC016D
:1016500080810895FC0181810895FC0182810895B3
:10166000CF93DF93EC016CE80E946F0960E0CE013C
:101670000396DF91CF910C94110B0C948009CF93BA
:10168000DF93D62FC72F862F972F0E9499096EEFD1
:10169000680F8D2F9C2FDF91CF910C949F09EF92B3
:1016A000FF920F931F93CF93DF930F92CDB7DEB7C7
:1016B000F82EE92E10E000E0BE016F5F7F4FC801F9
:1016C0000E9426048981813029F4602F8F2D9E2D60
:1016D0000E9481090F5F1F4F0032110569F70F90BB
:1016E000DF91CF911F910F91FF90EF900895CF92CE
:1016F000DF92EF92FF920F931F93CF93DF93CDB7BB
:10170000DEB72A970FB6F894DEBF0FBECDBF498370
:101710005A836B830C831D832E83CE0101960E9416
:101720002A0B182FCE0101960E942D0BD82ECE0128
:1017300004960E942A0B082FCE0104960E942D0BBE
:10174000C82E412F401B550BCA01550FAA0BBB0BCE
:101750008F839887A987BA87BC01CD010E94E90FC2
:101760006F83788789879A876F81788589859A853D
:101770000E9485117B018C01AD2DAC19BB0B9D0125
:10178000BB0F440B550B2F83388749875A87CA01F3
:10179000B9010E94E90F6F83788789879A876F81E3
:1017A000788589859A850E9485119B01AC01EF821D
:1017B000F88609871A876F81788589859A850E94BE
:1017C00012116F83788789879A876F8178858985D9
:1017D0009A850E947E11CB012A960FB6F894DEBF3F
:1017E0000FBECDBFDF91CF911F910F91FF90EF9072
:1017F000DF90CF900895CF92DF92EF92FF920F93F8
:101800001F93CF93DF93CDB7DEB729970FB6F89428
:10181000DEBF0FBECDBF49835A836B830C831D830C
:101820002E83CF82D886E986CE0101960E942A0BAC
:10183000F82ECE0101960E942D0BE82ECE010496C3
:101840000E942A0B182FCE0104960E942D0BD82E31
:10185000CE0107960E942A0B082FCE0107960E9400
:101860002D0B6D2D70E0212F30E0DB01AE19B10999
:10187000402F50E0421B530BA49FF001A59FF00D99
:10188000B49FF00D11242F19310990E0861B970B9E
:10189000289FA001299F500D389F500D1124CF0182
:1018A000841B950BE417F50729F0181619068CF020
:1018B00082E090E029960FB6F894DEBF0FBECDBF50
:1018C000DF91CF911F910F91FF90EF90DF90CF901C
:1018D000089581E090E0EECFFF920F931F93CF9396
:1018E000DF93D82FC92F062F142F0E949F09F82E9F
:1018F000612F8D2F9C2F0E949F09482F602F8D2FC5
:101900009C2F0E94B5094F2D612F8D2F9C2FDF91A9
:10191000CF911F910F91FF900C94B5097F928F92F8
:101920009F92AF92BF92CF92DF92EF92FF920F936E
:101930001F93CF93DF93EC015A01F62E702E812E68
:10194000922E4B815C816D81C02ED12EE22E8501BD
:101950002F2D0E94FB0B009729F54B815C816D8137
:10196000072D182D292DCE010E94770B4C014B819C
:101970005C816D8185012F2DCE010E94770B881629
:10198000990694F08FEF9FEFDF91CF911F910F9108
:10199000FF90EF90DF90CF90BF90AF909F908F908F
:1019A0007F900895029771F381E090E0EDCF2F9240
:1019B0003F924F925F926F927F928F929F92AF92DF
:1019C000BF92CF92DF92EF92FF920F931F93CF932C
:1019D000DF93CDB7DEB72A970FB6F894DEBF0FBE00
:1019E000CDBFF82EE92E0E9499098A87DD24D39471
:1019F0005E0187E0A80EB11C4E0184E0880E911CA8
:101A0000CE010196C82E792E8A85D816C8F02A965E
:101A10000FB6F894DEBF0FBECDBFDF91CF911F91FF
:101A20000F91FF90EF90DF90CF90BF90AF909F907D
:101A30008F907F906F905F904F903F902F90089580
:101A40006FEF6D0D8F2D9E2D0E949F09682FC50190
:101A50000E94110B6D2D8F2D9E2D0E949F09682FC6
:101A6000C4010E94110B0C811D812E814F8158856C
:101A700069858F2D9E2D0E948E0C9C0191E05A2C21
:101A80004B2C382C292C2130310509F090E01D2DEC
:101A90009923E1F166246A94610E412F662D8F2D02
:101AA0009E2D0E946C0C6EEF610F8F2D9E2D0E945B
:101AB0009F09682F8C2D972D0E94110B6C2D772D6F
:101AC000852D942D0E941B0B662D8F2D9E2D0E941F
:101AD0009F09682F8C2D972D0E94110B6C2D772D4F
:101AE000832D922D0E941B0B0C811D812E814F8115
:101AF000588569858F2D9E2D0E948E0C9C0191E04A
:101B00002130310509F090E0611002C0D3947CCF00
:101B1000162DBECF2F923F924F925F926F927F927F
:101B20008F929F92AF92BF92CF92DF92EF92FF92ED
:101B30000F931F93CF93DF93CDB7DEB76D970FB69B
:101B4000F894DEBF0FBECDBFB82EF92E3B01CB01FE
:101B50000E949909E82E60E0C3010E949F09682F46
:101B60008E010F5F1F4FC8010E94110BB801C30106
:101B700003960E941B0BC3010E94D70C88248394F8
:101B8000912C81E08E8BA02E512EEE2DF0E0FA8F5D
:101B9000E98FCE010796998B888BFE013496FB8BDB
:101BA000EA8B898D9A8D881699060CF45AC060E0EC
:101BB000C3010E949F09982E61E0C3010E949F0902
:101BC000082F62E0C3010E949F09182F68EC8B2D3B
:101BD0009F2D0E946F09692D8B2D9F2D0E948109D9
:101BE000602F8B2D9F2D0E948109612F8B2D9F2DA2
:101BF0000E94810983E0282E312CFE89EF2FF0E02E
:101C0000FF8BEE8BCE010D96998B888BFE013A9659
:101C1000FB8BEA8B06979D8B8C8B0397982E892ED6
:101C20008E899F89281639060CF48BC08B2D9F2D29
:101C30006D960FB6F894DEBF0FBECDBFDF91CF918A
:101C40001F910F91FF90EF90DF90CF90BF90AF90DA
:101C50009F908F907F906F905F904F903F902F90CC
:101C60000895682DC3010E949F09682FCE01079631
:101C70000E94110B61E0680DC3010E949F09682F4B
:101C8000CE0104960E94110BF889F88F49888A8941
:101C90008B8F9B899C8F1401EFEF2E1A3E0A898D42
:101CA0009A8D8215930581F1CC80DD80EE800F81C5
:101CB00018852985F301438154816581C3010E9400
:101CC000FB0B892B09F5622DC3010E949F09682F28
:101CD0008A2D952D0E94110B6A2D752D888D942DBE
:101CE0000E941B0B61E0620DC3010E949F09682FD7
:101CF0008A2D952D0E94110B6A2D752D8B8D9C8D33
:101D00000E941B0B4101C7CF682DC3010E949F0990
:101D1000682F8A2D952D0E94110B6A2D752D888DA7
:101D2000942D0E941B0B888D942D0E94270B482F09
:101D30006E89C3010E94B509FE89FF5FFE8B4101D8
:101D400030CF6B2D7F2D8A2D952D0E9474096A2D21
:101D5000752DC3010E943F0B682FCE010D960E9486
:101D6000110B8A2D952D0E9480098B2D9F2D0E948D
:101D700099096FEF680F8B2D9F2D0E949F09682F87
:101D8000CE010A960E94110B622DC3010E949F0989
:101D9000682FCE0107960E94110B9C89988FED89C0
:101DA000E98F4888F989FB8F8A898C8F9B899D8F61
:101DB0008B2D9F2D0E949909823068F4888D998D12
:101DC0000E94270B682F8B2D9F2D0E948109EFEF1A
:101DD0002E1A3E0A25CFCF80D884E9840A851B8538
:101DE0002C854D855E856F85C3010E94FB0B029794
:101DF00029F38B2D9F2D0E9491096B2D7F2D892D0D
:101E0000982D0E947409692D782DC3010E943F0B03
:101E1000682F8A2D952D0E94110B6A2D752D842D0A
:101E20009B8D0E941B0B892D982D0E9480098B2D64
:101E30009F2D0E9499096FEF680F8B2D9F2D0E9497
:101E40009F09682F8A2D952D0E94110B6A2D752DE3
:101E50008C8D9D8D0E941B0BABCF0E94EA006EEF14
:101E600073E08FEF93E00E940D018091FE038111DA
:101E70007AC0D0E0C0E060E0CE010E94F804219674
:101E8000C032D105C1F76EEF73E08FEF93E00E948F
:101E900018018091FE038093FD0391E0892790E073
:101EA0000E9499032FEF83ED90E3215080409040F2
:101EB000E1F700C000005498559881E090E00E943E
:101EC0009E000E948402809104049091050421E008
:101ED000009709F420E020930001892BA1F12FEF56
:101EE00083ED90E3215080409040E1F700C0000076
:101EF000809104040E94E30180910001882319F17C
:101F00000E94D1021092FD03109203041092020469
:101F10001092050410920404109207041092060413
:101F2000109285001092840010928000109281001F
:101F300010926F000E945301549A559A8FEF93E0CC
:101F40000E943201B8CF0E94700110928500109259
:101F50008400109280001092810010926F00549AB9
:101F6000559A0E947E010E943D0290E080E0089513
:101F70000E942C1088F09F5798F0B92F9927B751DD
:101F8000B0F0E1F0660F771F881F991F1AF0BA951D
:101F9000C9F714C0B13091F00E944610B1E0089525
:101FA0000C944610672F782F8827B85F39F0B93F17
:101FB000CCF3869577956795B395D9F73EF49095D0
:101FC0008095709561957F4F8F4F9F4F0895E8944E
:101FD00009C097FB3EF490958095709561957F4F71
:101FE0008F4F9F4F9923A9F0F92F96E9BB2793951F
:101FF000F695879577956795B795F111F8CFFAF42F
:10200000BB0F11F460FF1BC06F5F7F4F8F4F9F4F5F
:1020100016C0882311F096E911C0772321F09EE8BD
:10202000872F762F05C0662371F096E8862F70E023
:1020300060E02AF09A95660F771F881FDAF7880FFD
:102040009695879597F9089557FD9058440F551F19
:1020500059F05F3F71F04795880F97FB991F61F02A
:102060009F3F79F087950895121613061406551FA1
:10207000F2CF4695F1DF08C0161617061806991F0D
:10208000F1CF86957105610508940895E894BB2702
:1020900066277727CB0197F908950E9460100C946A
:1020A000D1100E94C31038F00E94CA1020F095236E
:1020B00011F00C94BA100C94C01011240C94471019
:1020C0000E94241070F3959FC1F3950F50E0551FA7
:1020D000629FF001729FBB27F00DB11D639FAA277D
:1020E000F00DB11DAA1F649F6627B00DA11D661FCC
:1020F000829F2227B00DA11D621F739FB00DA11DED
:10210000621F839FA00D611D221F749F3327A00DA6
:10211000611D231F849F600D211D822F762F6A2F42
:1021200011249F5750409AF0F1F088234AF0EE0FA7
:10213000FF1FBB1F661F771F881F91505040A9F7D4
:102140009E3F510580F00C94BA100C9447105F3FED
:10215000E4F3983ED4F3869577956795B795F79510
:10216000E7959F5FC1F7FE2B880F911D9695879588
:1021700097F9089597F99F6780E870E060E0089507
:102180009FEF80EC089500240A941616170618068F
:102190000906089500240A9412161306140605066B
:1021A0000895092E0394000C11F4882352F0BB0FFC
:1021B00040F4BF2B11F460FF04C06F5F7F4F8F4F5F
:1021C0009F4F08959091C00095FFFCCF8093C6006B
:1021D0000895AA1BBB1B51E107C0AA1FBB1FA6176E
:1021E000B70710F0A61BB70B881F991F5A95A9F7C0
:1021F00080959095BC01CD01089597FB072E16F4AC
:10220000009407D077FD09D00E94E91007FC05D0A3
:102210003EF4909581959F4F0895709561957F4FFD
:1022200008955058BB27AA270E9429110C94D11059
:102230000E94C31038F00E94CA1020F039F49F3F6A
:1022400019F426F40C94C0100EF4E095E7FB0C94FE
:10225000BA10E92F0E94241058F3BA1762077307C7
:102260008407950720F079F4A6F50C9446100EF437
:10227000E0950B2EBA2FA02D0B01B90190010C0196
:10228000CA01A0011124FF27591B99F0593F50F4AE
:10229000503E68F11A16F040A22F232F342F442706
:1022A000585FF3CF469537952795A795F0405395FE
:1022B000C9F77EF41F16BA0B620B730B840BBAF0CE
:1022C0009150A1F0FF0FBB1F661F771F881FC2F739
:1022D0000EC0BA0F621F731F841F48F4879577954D
:1022E0006795B795F7959E3F08F0B0CF9395880F07
:1022F00008F09927EE0F9795879508950E94B80FDB
:102300006894B1110C94471008959B01AC010C9492
:102310004D10BB274A3031F4992322F4BDE2909549
:1023200081959F4F0C949511BB27FB015527AA2738
:10233000880F991FAA1FA41710F0A41B8395505152
:10234000B9F7A05DAA3308F0A95DA193009779F7CA
:10235000B111B1931192CB010C94AE11DC01FC01CF
:10236000672F71917723E1F7329704C07C916D93C9
:1023700070836291AE17BF07C8F30895F894FFCF3A
:10238000012900A0250008080901F9F8F7FF07084E
:1023900009028D857E767069635E58534F4A4642C6
:1023A0003E3B3734312E2C29272523211F1D1B1A94
:1023B00018171514131211303132333435363738BB
:1023C00039616263646566710100001600000012E5
:1023D0000000000100000001000000310000000DBD
:1023E00000000006000000360000000A00000005A2
:1023F0000000004600000007000000060504033C42
:102400007376672077696474683D22313030252205
:10241000206865696768743D223130302522207854
:102420006D6C6E733D22687474703A2F2F777777D6
:102430002E77332E6F72672F323030302F737667DE
:10244000222076696577426F783D22302030203136
:1024500031353220353736223E0A093C72656374C5
:1024600020783D2235302220793D223530222077D8
:10247000696474683D22393630222068656967686E
:10248000743D2234383022207374726F6B653D22A4
:10249000626C61636B22207374726F6B652D776958
:1024A0006474683D2231222066696C6C3D22776835
:1024B000697465222F3E0A093C7465787420783D62
:1024C0002235302220793D2234352220666F6E7409
:1024D0002D66616D696C793D22617269616C2220A3
:1024E000666F6E742D73697A653D223230222066E4
:1024F000696C6C3D22626C7565223E53656374693C
:102500006F6E203032202D2D206571756970652029
:1025100033303438202D2D20454D424F543C2F74FC
:102520006578743E0A093C7465787420783D2235DC
:10253000302220793D223535302220666F6E742D91
:1025400066616D696C793D22617269616C222066F9
:102550006F6E742D73697A653D2232302220666970
:102560006C6C3D22626C7565223E416972653A2051
:102570000020706F75636573206361727265733CD0
:102580002F746578743E0A00093C706F6C79676F30
:102590006E20706F696E74733D22002C00222073D0
:1025A00074726F6B653D22626C61636B2220737481
:1025B000726F6B652D77696474683D2231222066E5
:1025C000696C6C3D22677265656E222F3E0A0009B8
:1025D0003C636972636C652063783D22002220634E
:1025E000793D22002220723D223130222073747204
:1025F0006F6B653D226772617922207374726F6B15
:10260000652D77696474683D2231222066696C6C9F
:102610003D2267726179222F3E0A00093C72656390
:102620007420783D22002220793D22002220776903
:102630006474683D223522206865696768743D22AC
:102640003522207374726F6B653D22626C61636B1F
:1026500022207374726F6B652D77696474683D22F4
:1026600031222066696C6C3D22626C61636B222FA3
:0C2670003E0A003C2F7376673E0A000013
:00000001FF
