:100000000C943E000C945B000C945B000C945B0021
:100010000C945B000C945B000C945B000C945B00F4
:100020000C945B000C945B000C945B000C945B00E4
:100030000C945B000C945B000C945B000C945B00D4
:100040000C945B000C945B000C945B000C945B00C4
:100050000C945B000C945B000C945B000C945B00B4
:100060000C945B000C945B000C945B000C945B00A4
:100070000C945B000C945B000C945B0011241FBE7D
:10008000CFEFD8E0DEBFCDBF13E0A0E0B1E0E2E902
:10009000F9E102C005900D92A23CB107D9F723E027
:1000A000A2ECB3E001C01D92A63CB207E1F70E94AA
:1000B0007F0A0C94C70C0C9400008FEC8093C40052
:1000C000E1ECF0E0808188618083E2ECF0E0808107
:1000D0008660808308958091C00087FFFCCF809167
:1000E000C600089580EA809300011092B90080E272
:1000F0008093B8000895982F9370891305C0880FD6
:10010000806A8093000108958FEF0895FB0134EA1F
:1001100044E83093BC002091BC0027FFFCCF209125
:1001200000012093BB004093BC002091BC0027FF3E
:10013000FCCF2091B900283161F724EA2093BC005C
:100140002091BC0027FFFCCF209100012093BB0031
:1001500024E82093BC002091BC0027FFFCCF9093A3
:10016000BB0094E89093BC009091BC0097FFFCCF3B
:100170008093BB0084E88093BC008091BC0087FF23
:10018000FCCF8091BC0087FFFCCF84EA8093BC0049
:100190008091BC0087FFFCCF809100018F5F80932E
:1001A000BB0084E88093BC008091BC0087FFFCCF3B
:1001B00084E88093BC008091BC0087FFFCCF8091D5
:1001C000BB00808384E98093BC008FE097E20197B5
:1001D000F1F700C0000080E0089534EA54E830935D
:1001E000BC002091BC0027FFFCCF20910001209390
:1001F000BB005093BC002091BC0027FFFCCF209196
:10020000B900283161F724EA2093BC002091BC009A
:1002100027FFFCCF209100012093BB0024E820930E
:10022000BC002091BC0027FFFCCF9093BB0094E85A
:100230009093BC009091BC0097FFFCCF8093BB00D3
:1002400084E88093BC008091BC0087FFFCCF84EAE7
:100250008093BC008091BC0087FFFCCF809100019F
:100260008F5F8093BB0084E88093BC008091BC00CA
:1002700087FFFCCF84EC41110BC084E98093BC0064
:100280008FE097E20197F1F700C0000080E0089549
:10029000413009F484E88093BC009091BC0097FF42
:1002A000FCCF9091BB00FB0191934150BF01E3CF84
:1002B00034EA44E83093BC002091BC0027FFFCCF17
:1002C000209100012093BB004093BC002091BC0012
:1002D00027FFFCCF2091B900283161F724EA209351
:1002E000BC002091BC0027FFFCCF2091000120938F
:1002F000BB0024E82093BC002091BC0027FFFCCF6A
:100300009093BB0094E89093BC009091BC0097FF41
:10031000FCCF8093BB0084E88093BC008091BC003C
:1003200087FFFCCF6093BB0084E88093BC00809182
:10033000BC0087FFFCCF84E98093BC008FE097E28C
:100340000197F1F700C0000080E008959C01840F40
:10035000911DA9014F678417950710F0CA010196F6
:10036000821B44EA54E84093BC009091BC0097FF84
:10037000FCCF909100019093BB005093BC009091F2
:10038000BC0097FFFCCF9091B900983161F794EAD7
:100390009093BC009091BC0097FFFCCF909100011E
:1003A0009093BB0094E89093BC009091BC0097FFA1
:1003B000FCCF3093BB0094E89093BC009091BC00BC
:1003C00097FFFCCF2093BB0094E89093BC009091E2
:1003D000BC0097FFFCCF982F24E8911104C094E94A
:1003E0009093BC000895FB0131913093BB002093A2
:1003F000BC003091BC0037FFFCCF9150BF01EDCF66
:10040000EF92FF920F931F93CF937C018B01C42F28
:100410004C2FB801C7010E94A601282F30E0E20E40
:10042000F31EC81B020F131FC111F2CF8FE097E21A
:100430000197F1F700C0000080E0CF911F910F916C
:10044000FF90EF9008958F929F92AF92BF92CF92BC
:10045000DF92FF920F931F93CF93DF938A019B014B
:100460004091C2035091C3036091C4037091C503CE
:1004700040955095609570956C0180E090E0DC01AE
:100480004093C2035093C3036093C4037093C503A6
:1004900080179107A207B307C1F440955095609566
:1004A00070954093C2035093C3036093C403709349
:1004B000C503DF91CF911F910F91FF90DF90CF90F7
:1004C000BF90AF909F908F900895F601F1906F01CB
:1004D000D0E0C0E04A018F247695679557954795FF
:1004E00080FE08C0F0E24F27F3E85F27F8EB6F27A4
:1004F000FDEE7F27F6942196C830D10559F7019675
:10050000A11DB11DBDCFCF93FC01DC0130E020E087
:10051000CD91C11108C0280F391FE217F30731F43C
:10052000CF910C9423022F5F3F4FF2CFA091C000D8
:10053000A5FFFCCFA191A093C600EFCFCF92DF9291
:10054000EF92FF920F931F93CF93DF938B019C0148
:10055000CA01DA01485F5F4FFC01742F652F680103
:100560007901CFE0CC22DD24EE24FF24E601CE5F2A
:10057000DE4FC881C193C4E036952795179507953E
:10058000CA95D1F7E417F50751F7E72FF62F049630
:100590002D913291ED01219738832083A817B90757
:1005A000B9F7DF91CF911F910F91FF90EF90DF90FE
:1005B000CF9008952F923F924F925F926F927F92C9
:1005C0008F929F92AF92BF92CF92DF92EF92FF9263
:1005D0000F931F93CF93DF93CDB7DEB764970FB61A
:1005E000F894DEBF0FBECDBF4DB75EB7588B4F87B7
:1005F000CE0101964C010E948206C4010E94A10610
:100600005E019AE0A90EB11CB401C5010E94DC088C
:100610006E0137E0C30ED11CB501C6010E946A0508
:10062000C6010E94C005782EE92EC6010E947605FB
:1006300082E090E00E94C10A41E751E060E070E092
:1006400086E491E00E948302072D1E2DF12C898AF9
:100650009A8A9A2C8B2CCB8ADC8A2AE030E001150E
:10066000110509F009C14DB75EB74F1951090FB611
:10067000F8945EBF0FBE4DBF8DB79EB701966C015B
:100680004AE0BC01872D9E2D0E94920C4F2D50E018
:1006900070E060E0C6010E94830246E150E060E045
:1006A00070E088EB92E00E94830242E150E060E05B
:1006B00070E08FEC92E00E948302512C9EE6292E7E
:1006C00022E9322E3AE0A32EB12C892D982D0E94DA
:1006D0008F05581608F4D7C041E350E060E070E0A1
:1006E00084EE92E00E9483028AE0A82EB12C802F33
:1006F00087709EE6899F6001112431E9C30ED11CE9
:100700003601202F26952695269542E94203700151
:10071000112459E3E51A5EEFF50A27016B897C89FC
:10072000C8010E9486003F808DB79EB79E878D8747
:10073000332009F427C14DE050E060E070E086E12D
:1007400093E00E948302312C33949301C301B501DD
:100750000E94C80A3B012A303105B0F74DB75EB799
:10076000431951090FB6F8945EBF0FBE4DBF8DB748
:100770009EB701963C014AE0BC01C6010E94920C62
:10078000432D50E070E060E0C3010E94830246E028
:1007900050E060E070E084E293E00E948302712CFC
:1007A00073949201C201B5010E94C80A2B012A303C
:1007B0003105B0F74DB75EB7471951090FB6F89438
:1007C0005EBF0FBE4DBF8DB79EB701966C014AE06C
:1007D000BC01C7010E94920C472D50E070E060E020
:1007E000C6010E94830246E350E060E070E08BE2C5
:1007F00093E00E9483024D855E850FB6F8945EBF3C
:100800000FBE4DBF0F5F1F4F0032110509F06FCFB4
:1008100047E050E060E070E08AEB93E00E948302E2
:1008200083E090E00E94C10A892D982D0E947605F0
:1008300089899A890E948F068F8598890FB6F894C6
:100840009EBF0FBE8DBF64960FB6F894DEBF0FBE7D
:10085000CDBFDF91CF911F910F91FF90EF90DF906F
:10086000CF90BF90AF909F908F907F906F905F9050
:100870004F903F902F900895F394C801B9010E94C2
:10088000C80A8B01ECCE4DB75EB75E874D87652DEC
:10089000892D982D0E949505482F282F2770229D7D
:1008A000900111242F563F4FC90146954695469514
:1008B000532D54037001112449E3E41A4EEFF40A56
:1008C0006701412C4394FC01B5010E94C80ACB0189
:1008D0003A97C0F78DB79EB7841991090FB6F8946F
:1008E0009EBF0FBE8DBF4DB75EB74F5F5F4F3A01E2
:1008F0004AE0B301C9010E94920C442D50E070E01F
:1009000060E0C3010E94830241E050E060E070E0DB
:1009100082EE92E00E948302712CC114D10459F539
:100920008DB79EB7871991090FB6F8949EBF0FBE79
:100930008DBF4DB75EB74F5F5F4F6A014AE0B601AA
:10094000C7010E94920C472D50E070E060E0C601A4
:100950000E94830241E050E060E070E086EB92E0AC
:100960000E9483028D859E850FB6F8949EBF0FBEB0
:100970008DBF5394AACE7394C601B5010E94C80AD4
:100980006B01CBCF4AE050E060E070E082E693E09C
:100990000E948302212C23949301C301B5010E947C
:1009A000C80A3B012A303105B0F74DB75EB742198E
:1009B00051090FB6F8945EBF0FBE4DBF8DB79EB7FD
:1009C00001963C014AE0BC01C6010E94920C422DF6
:1009D00050E070E060E0C3010E94830245E050E017
:1009E00060E070E08DE693E00E9483023394920110
:1009F000C201B5010E94C80A2B012A303105B0F7A7
:100A00004DB75EB7431951090FB6F8945EBF0FBEDC
:100A10004DBF8DB79EB701966C014AE0BC01C7017E
:100A20000E94920C432D50E070E060E0C6010E94ED
:100A3000830246E450E060E070E083E793E0D9CEC3
:100A4000CF93DF93CDB7DEB72C970FB6F894DEBF08
:100A50000FBECDBF8091C2039091C303A091C40388
:100A6000B091C50389879A87AB87BC87AE014F5F7A
:100A70005F4FBC01CD010E949E02FE013196DF0155
:100A800090E080E02D91211116C0A1E0B0E0AC0F04
:100A9000BD1F8A0F9B1FE817F90779F484E090E0E7
:100AA0000E94C10A2C960FB6F894DEBF0FBECDBFD0
:100AB000DF91CF9108950196E5CF2091C00025FFE9
:100AC000FCCF21912093C600E6CFFC0160836183B7
:100AD00012820895FC01DB018C91808311968C9128
:100AE0001197818312968C91828308950895CF93F4
:100AF000DF93EC01898190E00E94580189818F5F2A
:100B000089838A818F5F8A83DF91CF910895FC0169
:100B10008181815081838281815082830895FC018B
:100B200082810895FC0180810895CF93DF930F9215
:100B3000CDB7DEB7FC01962F19828081BE016F5FB1
:100B40007F4F890F9927991F0E94860089810F90F6
:100B5000DF91CF910895FC01962F642F8081890F3A
:100B60009927991F0C945801FC0162810C949505FA
:100B7000FC0181E09281911180E00895089508952B
:100B80007F928F929F92AF92BF92CF92DF92EF921D
:100B9000FF920F931F93CF93DF93CDB7DEB72A97C2
:100BA0000FB6F894DEBF0FBECDBFD82EC92E0E945F
:100BB0008F05F12CE12C10E000E0A82EB12CEA14F6
:100BC000FB040CF448C0C801110FAA0BBB0B8F83A8
:100BD0009887A987BA87BC01CD010E94950BDC01DB
:100BE000CB01BF778F839887A987BA8720E030E051
:100BF00040E05FE3BC01CD010E94210C20E030E029
:100C000042EF52E46F83788789879A876F8178856E
:100C100089859A850E94210C6F83788789879A87B6
:100C20006F81788589859A850E945D0BCB012A9614
:100C30000FB6F894DEBF0FBECDBFDF91CF911F91ED
:100C40000F91FF90EF90DF90CF90BF90AF909F906B
:100C50008F907F9008958FEFE81AF80A6FEF6E0D6E
:100C60008D2D9C2D0E949505682FCE0104960E9423
:100C70006306CE0104960E947C06782ECE0104966F
:100C80000E947F06882EC701B5010E94DC0A682FEA
:100C90008D2D9C2D0E949505682FCE0101960E94F6
:100CA0006306CE0101960E947C06982ECE01019625
:100CB0000E947F06789E000D111D1124899C001949
:100CC000110911247CCFFC016083862F87708183FA
:100CD00066956695669562830895FC01DB018C91AB
:100CE000808311968C911197818312968C918283C7
:100CF0000895FC0180810895FC0181810895FC0123
:100D000082810895CF93DF93EC016CE80E94650522
:100D100060E0CE010396DF91CF910C9463060C94B2
:100D20007605CF93DF93D62FC72F862F972F0E945C
:100D30008F056EEF680F8D2F9C2FDF91CF910C9454
:100D40009505EF92FF920F931F93CF93DF930F922E
:100D5000CDB7DEB7F82EE92E10E000E0BE016F5FE0
:100D60007F4FC8010E9486008981813029F4602F5D
:100D70008F2D9E2D0E9477050F5F1F4F00321105AA
:100D800069F70F90DF91CF911F910F91FF90EF9036
:100D90000895CF92DF92EF92FF920F931F93CF931C
:100DA000DF93CDB7DEB72A970FB6F894DEBF0FBE3C
:100DB000CDBF49835A836B830C831D832E83CE0161
:100DC00001960E947C06182FCE0101960E947F0694
:100DD000D82ECE0104960E947C06082FCE010496E0
:100DE0000E947F06C82E412F401B550BCA01550F8C
:100DF000AA0BBB0B8F839887A987BA87BC01CD014B
:100E00000E94950B6F83788789879A876F81788591
:100E100089859A850E948E0C7B018C01AD2DAC19C1
:100E2000BB0B9D01BB0F440B550B2F8338874987A4
:100E30005A87CA01B9010E94950B6F837887898709
:100E40009A876F81788589859A850E948E0C9B018F
:100E5000AC01EF82F88609871A876F8178858985CA
:100E60009A850E94F10A6F83788789879A876F81B4
:100E7000788589859A850E945D0BCB012A960FB6ED
:100E8000F894DEBF0FBECDBFDF91CF911F910F91C0
:100E9000FF90EF90DF90CF900895CF92DF92EF9286
:100EA000FF920F931F93CF93DF93CDB7DEB72997B0
:100EB0000FB6F894DEBF0FBECDBF49835A836B8354
:100EC0000C831D832E83CF82D886E986CE010196BE
:100ED0000E947C06F82ECE0101960E947F06E82E25
:100EE000CE0104960E947C06182FCE0104960E9423
:100EF0007F06D82ECE0107960E947C06082FCE01D1
:100F000007960E947F066D2D70E0212F30E0DB01F7
:100F1000AE19B109402F50E0421B530BA49FF001C2
:100F2000A59FF00DB49FF00D11242F19310990E009
:100F3000861B970B289FA001299F500D389F500DAD
:100F40001124CF01841B950BE417F50729F018161F
:100F500019068CF082E090E029960FB6F894DEBF77
:100F60000FBECDBFDF91CF911F910F91FF90EF90FA
:100F7000DF90CF90089581E090E0EECFFF920F9345
:100F80001F93CF93DF93D82FC92F062F142F0E94C2
:100F90009505F82E612F8D2F9C2F0E949505482FC7
:100FA000602F8D2F9C2F0E94AB054F2D612F8D2F11
:100FB0009C2FDF91CF911F910F91FF900C94AB0567
:100FC0007F928F929F92AF92BF92CF92DF92EF92D9
:100FD000FF920F931F93CF93DF93EC015A01F62EEC
:100FE000702E812E922E4B815C816D81C02ED12E70
:100FF000E22E85012F2D0E944D07009729F54B8188
:101000005C816D81072D182D292DCE010E94C90606
:101010004C014B815C816D8185012F2DCE010E9499
:10102000C9068816990694F08FEF9FEFDF91CF9154
:101030001F910F91FF90EF90DF90CF90BF90AF90F6
:101040009F908F907F900895029771F381E090E0D8
:10105000EDCF2F923F924F925F926F927F928F923D
:101060009F92AF92BF92CF92DF92EF92FF920F9337
:101070001F93CF93DF93CDB7DEB72A970FB6F894BF
:10108000DEBF0FBECDBFF82EE92E0E948F058A87E6
:10109000DD24D3945E0187E0A80EB11C4E0184E0EC
:1010A000880E911CCE010196C82E792E8A85D816FD
:1010B000C8F02A960FB6F894DEBF0FBECDBFDF9101
:1010C000CF911F910F91FF90EF90DF90CF90BF9045
:1010D000AF909F908F907F906F905F904F903F90D8
:1010E0002F9008956FEF6D0D8F2D9E2D0E94950509
:1010F000682FC5010E9463066D2D8F2D9E2D0E94C5
:101100009505682FC4010E9463060C811D812E8104
:101110004F81588569858F2D9E2D0E94E0079C0187
:1011200091E05A2C4B2C382C292C2130310509F018
:1011300090E01D2D9923E1F166246A94610E412F00
:10114000662D8F2D9E2D0E94BE076EEF610F8F2D95
:101150009E2D0E949505682F8C2D972D0E94630669
:101160006C2D772D852D942D0E946D06662D8F2D6B
:101170009E2D0E949505682F8C2D972D0E94630649
:101180006C2D772D832D922D0E946D060C811D8173
:101190002E814F81588569858F2D9E2D0E94E007F5
:1011A0009C0191E02130310509F090E0611002C00E
:1011B000D3947CCF162DBECF2F923F924F925F9249
:1011C0006F927F928F929F92AF92BF92CF92DF9257
:1011D000EF92FF920F931F93CF93DF93CDB7DEB7BC
:1011E0006D970FB6F894DEBF0FBECDBFB82EF92EA7
:1011F0003B01CB010E948F05E82E60E0C3010E94F5
:101200009505682F8E010F5F1F4FC8010E9463066E
:10121000B801C30103960E946D06C3010E9429080C
:1012200088248394912C81E08E8BA02E512EEE2D5C
:10123000F0E0FA8FE98FCE010796998B888BFE013B
:101240003496FB8BEA8B898D9A8D881699060CF45F
:101250005AC060E0C3010E949505982E61E0C30169
:101260000E949505082F62E0C3010E949505182F82
:1012700068EC8B2D9F2D0E946505692D8B2D9F2D70
:101280000E947705602F8B2D9F2D0E947705612F7F
:101290008B2D9F2D0E94770583E0282E312CFE890F
:1012A000EF2FF0E0FF8BEE8BCE010D96998B888BA4
:1012B000FE013A96FB8BEA8B06979D8B8C8B0397EE
:1012C000982E892E8E899F89281639060CF48BC09A
:1012D0008B2D9F2D6D960FB6F894DEBF0FBECDBF40
:1012E000DF91CF911F910F91FF90EF90DF90CF9002
:1012F000BF90AF909F908F907F906F905F904F9036
:101300003F902F900895682DC3010E949505682F86
:10131000CE0107960E94630661E0680DC3010E943A
:101320009505682FCE0104960E946306F889F88F10
:1013300049888A898B8F9B899C8F1401EFEF2E1A25
:101340003E0A898D9A8D8215930581F1CC80DD80CE
:10135000EE800F8118852985F301438154816581D1
:10136000C3010E944D07892B09F5622DC3010E941C
:101370009505682F8A2D952D0E9463066A2D752D7F
:10138000888D942D0E946D0661E0620DC3010E945C
:101390009505682F8A2D952D0E9463066A2D752D5F
:1013A0008B8D9C8D0E946D064101C7CF682DC301B6
:1013B0000E949505682F8A2D952D0E9463066A2D3F
:1013C000752D888D942D0E946D06888D942D0E9418
:1013D0007906482F6E89C3010E94AB05FE89FF5F25
:1013E000FE8B410130CF6B2D7F2D8A2D952D0E94D4
:1013F0006A056A2D752DC3010E949106682FCE01E2
:101400000D960E9463068A2D952D0E9476058B2DE0
:101410009F2D0E948F056FEF680F8B2D9F2D0E94CF
:101420009505682FCE010A960E946306622DC301BE
:101430000E949505682FCE0107960E9463069C893D
:10144000988FED89E98F4888F989FB8F8A898C8F7D
:101450009B899D8F8B2D9F2D0E948F05823068F474
:10146000888D998D0E947906682F8B2D9F2D0E9463
:101470007705EFEF2E1A3E0A25CFCF80D884E98476
:101480000A851B852C854D855E856F85C3010E946D
:101490004D07029729F38B2D9F2D0E9487056B2DF9
:1014A0007F2D892D982D0E946A05692D782DC30105
:1014B0000E949106682F8A2D952D0E9463066A2D41
:1014C000752D842D9B8D0E946D06892D982D0E946F
:1014D00076058B2D9F2D0E948F056FEF680F8B2D4A
:1014E0009F2D0E949505682F8A2D952D0E946306D9
:1014F0006A2D752D8C8D9D8D0E946D06ABCF0E943F
:1015000072000E945D00D0E0C0E060E0CE010E9469
:1015100058012196C032D105C1F761E082E190E027
:101520000E94580161E08FE090E00E94580161E064
:1015300085E090E00E94580161E088E090E00E9420
:10154000580161E084E190E00E94580161E086E08A
:1015500090E00E94580161E088E190E00E9458010B
:1015600061E08DE090E00E94580161E08CE190E044
:101570000E9458010E94DA020E94200590E080E05B
:1015800008959091C00095FFFCCF8093C600089508
:10159000AA1BBB1B51E107C0AA1FBB1FA617B70799
:1015A00010F0A61BB70B881F991F5A95A9F78095B5
:1015B0009095BC01CD01089597FB072E16F4009479
:1015C00007D077FD09D00E94C80A07FC05D03EF479
:1015D000909581959F4F0895709561957F4F0895DF
:1015E0005058BB27AA270E94080B0C94E70B0E94B7
:1015F000D90B38F00E94E00B20F039F49F3F19F42A
:1016000026F40C94D60B0EF4E095E7FB0C94D00B6B
:10161000E92F0E94F80B58F3BA1762077307840783
:10162000950720F079F4A6F50C941A0C0EF4E095C9
:101630000B2EBA2FA02D0B01B90190010C01CA018C
:10164000A0011124FF27591B99F0593F50F4503E37
:1016500068F11A16F040A22F232F342F4427585F29
:10166000F3CF469537952795A795F0405395C9F741
:101670007EF41F16BA0B620B730B840BBAF09150F9
:10168000A1F0FF0FBB1F661F771F881FC2F70EC098
:10169000BA0F621F731F841F48F48795779567956B
:1016A000B795F7959E3F08F0B0CF9395880F08F057
:1016B0009927EE0F9795879508950E94640B68947B
:1016C000B1110C941B0C08950E94000C88F09F57D8
:1016D00098F0B92F9927B751B0F0E1F0660F771F56
:1016E000881F991F1AF0BA95C9F714C0B13091F04C
:1016F0000E941A0CB1E008950C941A0C672F782FF1
:101700008827B85F39F0B93FCCF386957795679510
:10171000B395D9F73EF490958095709561957F4F7C
:101720008F4F9F4F0895E89409C097FB3EF4909522
:101730008095709561957F4F8F4F9F4F9923A9F0AA
:10174000F92F96E9BB279395F69587957795679539
:10175000B795F111F8CFFAF4BB0F11F460FF1BC07D
:101760006F5F7F4F8F4F9F4F16C0882311F096E910
:1017700011C0772321F09EE8872F762F05C06623BE
:1017800071F096E8862F70E060E02AF09A95660F77
:10179000771F881FDAF7880F9695879597F9089530
:1017A00097F99F6780E870E060E008959FEF80EC14
:1017B000089500240A9416161706180609060895B7
:1017C00000240A9412161306140605060895092E1D
:1017D0000394000C11F4882352F0BB0F40F4BF2B8C
:1017E00011F460FF04C06F5F7F4F8F4F9F4F0895CC
:1017F00057FD9058440F551F59F05F3F71F04795C2
:10180000880F97FB991F61F09F3F79F087950895A6
:10181000121613061406551FF2CF4695F1DF08C0C5
:10182000161617061806991FF1CF869571056105E2
:1018300008940895E894BB2766277727CB0197F98A
:1018400008950E94340C0C94E70B0E94D90B38F0D9
:101850000E94E00B20F0952311F00C94D00B0C9417
:10186000D60B11240C941B0C0E94F80B70F3959F5F
:10187000C1F3950F50E0551F629FF001729FBB2787
:10188000F00DB11D639FAA27F00DB11DAA1F649F23
:101890006627B00DA11D661F829F2227B00DA11DD6
:1018A000621F739FB00DA11D621F839FA00D611D5C
:1018B000221F749F3327A00D611D231F849F600D7D
:1018C000211D822F762F6A2F11249F5750409AF0A6
:1018D000F1F088234AF0EE0FFF1FBB1F661F771F32
:1018E000881F91505040A9F79E3F510580F00C94FD
:1018F000D00B0C941B0C5F3FE4F3983ED4F3869519
:1019000077956795B795F795E7959F5FC1F7FE2B9C
:10191000880F911D9695879597F908959B01AC01C5
:101920000C94210CBB274A3031F4992322F4BDE2F8
:10193000909581959F4F0C949E0CBB27FB015527DA
:10194000AA27880F991FAA1FA41710F0A41B83951C
:101950005051B9F7A05DAA3308F0A95DA193009793
:1019600079F7B111B1931192CB010C94B70CDC0152
:10197000FC01672F71917723E1F7329704C07C91C6
:101980006D9370836291AE17BF07C8F30895F89402
:02199000FFCF87
:10199200A008303132333435363738396162636406
:1019A20065667101000016000000120000000100CF
:1019B200000001000000310000000D0000000600E0
:1019C2000000360000000A0000000500000046008A
:1019D2000000070000003C73766720776964746832
:1019E2003D223130302522206865696768743D22C6
:1019F200313030252220786D6C6E733D226874740C
:101A0200703A2F2F7777772E77332E6F72672F32B8
:101A12003030302F737667222076696577426F788F
:101A22003D22302030203131353220353736223ECA
:101A32000A093C7265637420783D22353022207990
:101A42003D223530222077696474683D2239363070
:101A520022206865696768743D2234383022207319
:101A620074726F6B653D22626C61636B22207374CA
:101A7200726F6B652D77696474683D22312220662E
:101A8200696C6C3D227768697465222F3E0A093CB5
:101A92007465787420783D2235302220793D2234D5
:101AA200352220666F6E742D66616D696C793D22F8
:101AB200617269616C2220666F6E742D73697A653A
:101AC2003D223230222066696C6C3D22626C756563
:101AD200223E53656374696F6E203032202D2D20B3
:101AE2006571756970652033303438202D2D20459D
:101AF2004D424F543C2F746578743E0A093C74651C
:101B0200787420783D2235302220793D22353530D7
:101B12002220666F6E742D66616D696C793D22615B
:101B22007269616C2220666F6E742D73697A653DED
:101B3200223230222066696C6C3D22626C7565220D
:101B42003E416972653A200020706F7563657320AB
:101B52006361727265733C2F746578743E0A000982
:101B62003C706F6C79676F6E20706F696E74733D35
:101B720022002C0022207374726F6B653D22626C0E
:101B820061636B22207374726F6B652D7769647465
:101B9200683D2231222066696C6C3D226772656560
:101BA2006E222F3E0A00093C636972636C652063F2
:101BB200783D2200222063793D22002220723D22BC
:101BC200313022207374726F6B653D2267726179C6
:101BD20022207374726F6B652D77696474683D227D
:101BE20031222066696C6C3D2267726179222F3E38
:101BF2000A00093C7265637420783D220022207934
:101C02003D2200222077696474683D2235222068D3
:101C120065696768743D223522207374726F6B6543
:101C22003D22626C61636B22207374726F6B652D4F
:101C320077696474683D2231222066696C6C3D22AA
:101C4200626C61636B222F3E0A003C2F7376673E03
:021C52000A0086
:00000001FF
